:020000040800F2
:10000000480A0020290200083702000839020008C7
:100010003B0200083D0200083F020008000000000B
:100020000000000000000000000000004102000885
:1000300043020008000000004502000847020008D3
:100040004902000849020008490200084902000864
:1000500049020008490200083D1100084902000851
:100060004902000849020008490200084902000844
:100070004902000849020008490200084902000834
:100080004902000849020008490200084902000824
:100090004902000849020008490200084902000814
:1000A0004902000849020008490200084902000804
:1000B00049020008ED33000849020008490200081F
:1000C00049020008490200084902000849020008E4
:1000D00049020008B13B0008490200084902000833
:1000E000DD11000849020008490200084902000821
:1000F00049020008490200084902000849020008B4
:1001000049020008490200084902000849020008A3
:100110004902000849020008490200084902000893
:100120004902000849020008490200084902000883
:100130004902000849020008490200084902000873
:100140004902000849020008490200084902000863
:100150004902000849020008490200084902000853
:100160004902000849020008490200084902000843
:100170004902000849020008490200084902000833
:10018000490200084902000800F002F800F03CF8BB
:100190000AA090E8000C82448344AAF10107DA45E2
:1001A00001D100F031F8AFF2090EBAE80F0013F0F8
:1001B000010F18BFFB1A43F001031847CC3E0000A3
:1001C000EC3E0000103A24BF78C878C1FAD8520734
:1001D00024BF30C830C144BF04680C6070470000C1
:1001E0000023002400250026103A28BF78C1FBD840
:1001F000520728BF30C148BF0B6070471FB503F0DE
:100200003DFF1FBD10B510BD00F035F81146FFF7DA
:10021000F5FF03F0C3FE00F053F803B4FFF7F2FF5D
:1002200003BC03F03FFE00000B48016841F470017D
:1002300001600A480047FEE7FEE7FEE7FEE7FEE74B
:10024000FEE7FEE7FEE7FEE7FEE70000044805499B
:10025000034A054B7047000088ED00E08901000863
:1002600048060020480A00204806002070477047D2
:10027000704770477047754600F02CF8AE46050091
:100280006946534620F00700854618B020B5FFF7B1
:10029000DDFFBDE820404FF000064FF000074FF0B3
:1002A00000084FF0000B21F00701AC46ACE8C00994
:1002B000ACE8C009ACE8C009ACE8C0098D4670479D
:1002C00010B50446AFF300802046BDE81040FFF7AC
:1002D000A4BF000000487047E405002010B50120CD
:1002E000184908701848007838B901201749086083
:1002F0001749C1F8B802174908600F2002F004FA44
:100300000F2002F097F9012803D103F0B7FD022076
:1003100010BD0E489838006818B10F480088C828EA
:100320000BDD03F0ABFD0020084908600849C1F867
:10033000B802084908600320EAE7012003F05CFDE9
:100340000020E5E71D000020E5000020B4824442C3
:1003500000804442A4024342560000207CB50025A0
:1003600000240320504908705048007800EB8000BA
:100370004F4901EB40004F490978405C08280AD1F9
:100380004D48007838B901204C4908604C49C1F803
:10039000B8024C4908600120484908604849C1F842
:1003A000B80248490831086002F0AEF946480078C2
:1003B00001282AD145480078E8B14448007801284E
:1003C00019D042480078022815D040480078032808
:1003D00002D13F48007870B13C480078042802D12F
:1003E0003B48007838B139480078052803D03748B1
:1003F0000078062806D13748007818B9012000F0A7
:1004000079FC02E0002000F075FC334800780128F8
:1004100003D032480078012805D10021012000F0E6
:100420007FFC054604E00121022000F079FC05462E
:100430002B48007820B9012002F09AFA04460AE01D
:100440000020032103460246CDE9001001210846A1
:1004500000F00EFB0446022D01D0022C02D103F065
:100460000DFD1EE025B91CB9012003F0C5FC18E004
:10047000042C16D0032C10D100201049086010491C
:10048000C1F8B8020F4908600C490860091D0860EE
:100490001449C1F8AC0203207CBD00F001FF01202B
:1004A000FAE70020F8E700001D000020EE00002021
:1004B0001F00002051000020E5000020B4824442CB
:1004C00000804442A4024342620000201E0000203B
:1004D00052000020E1000020DF0000205400002036
:1004E000E00000200000434210B500244548007899
:1004F000002856D14448007880B94448006848B97B
:1005000043480078012805D14249087042480088D4
:10051000424908803D4800683D4908703A480478DF
:10052000002C0CDD3E48007848B901203D49087098
:1005300002203849087038484088384908803848CF
:10054000047034480078022806D134480088052811
:1005500002DA03202F4908702E480078032803D1BF
:100560002D4880882D4908802F48006801280AD12D
:1005700003202C4908700420264908702648C088AA
:10058000264908800DE021480830006848B902205B
:100590002449087005201F4908701F4800891F4919
:1005A00008802248007801281AD1214800880028B4
:1005B0000ADD04201B4908700620164908701648F9
:1005C0004089164908800BE0002016490870174939
:1005D000087007200F4908700F4880890F4908806C
:1005E0000E480088012802DA00200A4908701148E4
:1005F0000088142804DD00200E49088002F090F9DC
:1006000010BD000063000020EE000020288243425D
:10061000220100200F010020140100201001002001
:10062000230100200E01002000024542C4000020EA
:10063000C60000201201002010B507220249002048
:1006400001F0A0FF10BD0000D405002038B5002443
:1006500007203049087030480088C82190FBF1F12C
:10066000F82040FA01F40E2002F04EF80E2001F0BE
:10067000E1FF01280FD103F001FC04F00100C4F3F5
:100680004003C4F38002C4F3C0010090012000F0D5
:1006900019FC022038BD2148006888B903F0EEFB40
:1006A00000200346024601460090012000F00AFCAB
:1006B000012001F0BFFF00BB02F008F80320E9E7CA
:1006C00004F00100C4F34003C4F38002C4F3C0018A
:1006D0000090022000F0F6FB054655B904F00F002B
:1006E0000F2802D003F0CAFB12E0002003F042FB07
:1006F0000EE0022D02D103F0C1FB09E0042D03D16D
:10070000002003F079FB03E000F0CAFD0120C1E7FF
:100710000020BFE71D0000205C000020348243421F
:1007200010B50220134908700120134908601349CD
:10073000C1F8B0020F2001F0E7FF0F2001F07AFFAF
:10074000012803D103F09AFB022010BD0C48006879
:1007500058B903F093FB01F0B9FF00200649086087
:100760000649C1F8B0020320EFE7012003F002FBC5
:100770000020EAE71D000020B88244420080444285
:10078000348243421CB504202E4908702E4800785C
:1007900038B901202D4908602D49C1F8B8022D490A
:1007A00008600D2001F0B0FF0D2001F043FF01288B
:1007B00003D103F063FB02201CBD27480068E8B9A1
:1007C00003F05CFB0020032103460246CDE9001044
:1007D0000121084600F04CF901F078FF00201B4988
:1007E00008601B49C1F8B8021A490860022001F0EC
:1007F00021FF08B90320DFE70220DDE71748007872
:1008000001280BD10020032103460246CDE9001048
:100810000121084600F02CF9044603E0022002F012
:10082000A7F804461CB9012003F0A4FA08E0022C42
:1008300002D103F023FB03E000F032FD0120BBE70F
:100840000020B9E71D000020E6000020B4824442E9
:1008500000804442A802434234824342E000002028
:1008600078480068012800D170477748007801284F
:1008700003D07448001F006808B90220F4E77348E9
:10088000006820B97248006808B90320ECE7704896
:100890001038006820B96F48006808B90420E3E701
:1008A0006D48006828B96B48001F006808B905202A
:1008B000DAE76A48006828B966480838006808B965
:1008C0000620D1E76648007800286FD165480068A7
:1008D000012801D11420C7E75D480068012801D133
:1008E0001520C1E75A4810380068012801D11620A8
:1008F000BAE759480068012801D11720B4E75748E2
:100900000068012801D11820AEE754480838006873
:10091000012801D11A20A7E750480C38006808B90F
:100920001B20A1E74D4810380068012801D11C2088
:100930009AE74D480068012801D11D2094E74A48F4
:10094000001F0068012801D11E208DE746480838A5
:100950000068012801D11F2086E73C481430006858
:10096000012801D120207FE738480830006808B905
:10097000232079E73548001D006808B9242073E773
:100980003248006808B925206EE73248006808B987
:10099000262069E72F48001F006808B9272063E771
:1009A0002C480838006810B928205DE747E029483E
:1009B0000C38006808B9292056E726481038006826
:1009C00008B92A2050E723481438006808B92B20BA
:1009D0004AE720481838006808B92C2044E71D4829
:1009E0001C38006808B92D203EE71648083000681A
:1009F00008B92E2038E71348001D0068012801D1EE
:100A00002F2031E719480078012806D11348001F2C
:100A10000068012801D1192026E71448007802282F
:100A20000DD10A4810300068012801D121201BE7B0
:100A300006480C300068012801D1222014E700206C
:100A400012E7000034824042EC0000201882444249
:100A5000300240423C824142240241421802434259
:100A60001D000020348243420802454262000020FB
:100A70002DE9F04704460D4616461F46DDE9088974
:100A8000012F03D101208F49086005E01FB9002024
:100A90008C49086000E000BFB8F1010F16D1462074
:100AA0008949086089480068012807DA01208849D7
:100AB000086000208749C1F89C022EE0002084498C
:100AC000091D08608349C1F8980226E0B8F1020FB9
:100AD00017D146207D4908607B480068012808DA64
:100AE00001207B49091D086000207A49C1F898025D
:100AF00013E000207649091D08607649C1F8980284
:100B00000BE0B8F1030F07D100207149091D0860FF
:100B10007049C1F8980200E000BF6F4800680128E2
:100B200006D100F02DFC00F055FD0220BDE8F08755
:100B3000012C02D100F024FC5EE0022C01D0032C39
:100B400059D160486838006801284DD15D48603847
:100B5000006801283ED15B4858380068012802D05F
:100B6000B9F1010F36D15D480068012828DA022C5E
:100B700026D1012E1BD15A480088C82806DB5948C7
:100B8000006818B158480088C82808DD002052497C
:100B9000B031086001204F49C1F88C022CE00020E0
:100BA0004D49B03108604B49C1F88C0224E0002067
:100BB0004949B031086001204649C1F88C021BE068
:100BC00000204549B03108604249C1F88C024449CF
:100BD000088011E000204049B03108603D49C1F86B
:100BE0008C023F49088007E000F0CAFB4FF4967082
:100BF0003A49086000E000BF012D02D100F0EAFC94
:100C00005EE0022D01D0032D59D12E486C380068CA
:100C100001284DD12B486438006801283ED129486D
:100C20005C380068012802D0B9F1010F36D12F4895
:100C30000068012828DA022D26D1012E1BD12C486C
:100C40000088C82806DB2748006818B126480088B5
:100C5000C82808DD00201E490839086001201D4908
:100C6000C1F894022CE0002019490839086019499C
:100C7000C1F8940224E000201549083908600120D9
:100C80001449C1F894021BE000201149083908609A
:100C90001049C1F894021649088011E000200C495F
:100CA000083908600B49C1F894021149088007E02F
:100CB00000F090FC4FF496700C49086000E000BF13
:100CC000002033E790824142C0000020BC00002099
:100CD000980245420000454208024342A800002015
:100CE000B00000201C82444256000020AC000020CE
:100CF000B2000020014608480078012809D119B93E
:100D00000020064A106002E00120044A1060002022
:100D10007047FF20FCE7000062000020BC824442D4
:100D200070B504460D46002638480078012868D181
:100D3000012C02D100F086FC55E0022C48D1344849
:100D40000068012828D133480068012824D132489E
:100D50000068012820D13148006870B93048006827
:100D6000012802DA00F054FC3DE000202949A831B6
:100D700008602C49C1F8B00235E02B480068012812
:100D800007DA00202349A83108602649C1F8B002DB
:100D900029E000F057FC26E01E48006848B11E48D4
:100DA000006830B11A48006850B9204800883228DD
:100DB00006DD14201C49086000F044FC022612E005
:100DC00000201449A83108601649C1F8B0020AE0B1
:100DD000032C07D100200F49A83108601149C1F840
:100DE000B00200E000BF012D04D101200B496C319D
:100DF000086008E025B9002008496C31086002E06D
:100E000001E0FF2070BD3046FCE7000062000020DA
:100E1000208244420C0243423C82404220824142B2
:100E20009C00002000004342A4000020B4000020E9
:100E300010B5024600231D480078022832D1012A4D
:100E400008D101201A4C20601A4CC4F8B8021A4C80
:100E5000206007E00020164C2060164CC4F8B80251
:100E6000154C2060012907D10120144C206000207E
:100E7000134CC4F89C0217E0022908D101200F4C42
:100E8000241D206000200E4CC4F898020CE00329B9
:100E900007D10020094C241D2060094CC4F8980299
:100EA00002E001E0FF2010BD1846FCE762000020D0
:100EB000B4824442008044429C82414298024042B3
:100EC000000040422DE9F04704460D4616461F46F5
:100ED000DDF820804FF00009022C73D166480068CD
:100EE000012810D165480078072807D164480068B8
:100EF000642803DDC8206349086004E0C820624913
:100F000008604FF002095F48006800280BDD0020F0
:100F10005E4908605E49C1F88802C8205A490860E5
:100F20004FF004096BE058480068002804DD00F029
:100F3000C1FB4FF0020962E056480068012803D166
:100F40004E480078072808D15248001F0068012841
:100F50000FD14A48007807280BD100F0ABFB3220B4
:100F60004D4908604D480068322848DB4FF00209BF
:100F700045E00020494908604748006801282CDA0C
:100F800047480068012821DA4648006801280AD14C
:100F900000203E4908603E49C1F888024FF4C870FD
:100FA0003F4908602BE03648006878280BDD3E4852
:100FB0000078012807D10020344908603449C1F87D
:100FC00088021CE00CE000F05DFB18E000202F49D7
:100FD00008602F49C1F8880211E000F06BFB0EE0B9
:100FE000012C02D100F066FB09E0032C06D10020A1
:100FF000264908602649C1F8880200E000BF012D9B
:1010000004D1012027494C31086006E025B90020B1
:1010100024494C31086000E000BF012E04D10120BA
:101020001A49091F086006E026B900201749091F60
:10103000086000E000BF012F04D1012019494831A8
:10104000086006E027B9002016494831086000E032
:1010500000BFB8F1010F03D101201449086007E077
:10106000B8F1000F03D100201049086000E000BF74
:101070004846BDE8F0870000100243421D000020F2
:1010800064000020880000209000002084824442F8
:10109000008044420802454298000020940000204D
:1010A0008C0000203882404260000020BC02444294
:1010B0007CB5002405201C4908701C480088C82104
:1010C00090FBF1F1F82040FA01F4042001F01CFB40
:1010D00001210846FFF724FE0020012103460246B5
:1010E000CDE900100846FFF7C3FC04F00100C4F38B
:1010F0004003C4F38002C4F3C00100900220FFF754
:10110000E1FE054602F0BAFE0948006820B9094828
:101110000949086003207CBDFF2D03D100F0C0F811
:101120000120F8E70020F6E71D0000205C00002009
:101130001882444219FCFFFF6C0000201E49096818
:1011400001F00101002936D01C490968012908D1A4
:101150001B49096800292BDA1A490968184A1160E5
:1011600026E018490968502922DD17490988B1F598
:10117000FA7F1ADD13490968144A11600121144AE3
:10118000117012490968134A1268891A01F1130093
:101190000F2803DA0121104A117002E000210E4AE3
:1011A00011700021084A118002E00021064A1180D6
:1011B0000121014A11607047143C01400002454280
:1011C0006800002064000020100000206C00002057
:1011D0005E00002080000020600000202649096891
:1011E00001F40041F1B125490978012915DD2449AF
:1011F0000978012905D123490968491C214A116050
:1012000008E01F490978022904D11E490968491ECE
:101210001C4A11600021194A11704FF40041164A0E
:10122000116027E01449096801F4006111B31649FF
:101230000968012904D113490968144A116015E0AD
:1012400010490968502911DD0E490968104A1160DA
:101250001049096851B9104909681268891A01F1E1
:1012600013000F2802DA01210C4A11704FF40061BB
:10127000014A116070470000143C014061000020E9
:1012800053000020640000202C82444214000020FF
:1012900080000020000245426C0000206000002019
:1012A00000B501F0D7F801F0F7F800BD00B5FFF781
:1012B000D7FA0549087008460078142801DA012099
:1012C00000BD0020FCE700005F000020F0B50346F1
:1012D0000846CD1701EB9575AD10A1EB8505AD0660
:1012E0002C0E2448006840F48040224D2860CD1721
:1012F00001EB9575AE10204D55F826500F26A640EF
:10130000B5430846CE1701EB9676B7101A4E46F84D
:101310002750CD1701EB9575AE10174D55F8265097
:1013200003FA04F63543CE1701EB9676B710124E4A
:1013300046F827501148006801258D4028430F4D7D
:10134000286002F0010040B10C480C300068012513
:101350008D402843094D0C35286002F0020040B151
:1013600006480830006801258D402843034D0835A4
:101370002860F0BD4438024008380140003C01407C
:101380000A48006830B90020094908600949C1F8D5
:101390008C0206E000200849086001200749C1F8D6
:1013A000B80200200649088070470000240241422C
:1013B000B8024342000045428C02454200004342CD
:1013C000B000002000B5002000F0C2F844490860D9
:1013D000022000F0BDF843490870032000F0B8F87F
:1013E00041490870042000F0B3F840490870052016
:1013F00000F0AEF83E490870062000F0A9F83D491B
:101400000870072000F0A4F83B490870082000F09D
:101410009FF83A490870092000F09AF83849087096
:101420000A2000F095F8374908700B2000F090F87A
:10143000354908700C2000F08BF8344908700D20F5
:1014400000F086F832490860112000F081F8314937
:101450000880132000F07CF82F490870142000F059
:1014600077F82E490870152000F072F82C490870A2
:10147000162000F06DF82B490870172000F068F86E
:1014800029490870182000F063F8284908701920CD
:1014900000F05EF8264908701A2000F059F8254936
:1014A00008601E2000F054F823490880202000F036
:1014B0004FF822490870212000F04AF820490870AE
:1014C000222000F045F81F490870232000F040F862
:1014D0001D490870242000F03BF81C49087000BD2D
:1014E00064000020DF000020E0000020E100002078
:1014F000E2000020E3000020E4000020E5000020DE
:10150000E6000020E7000020E8000020E9000020BD
:10151000F0000020F4000020FC000020FD0000206E
:10152000FE000020FF00002000010020010100203B
:101530000201002004010020080100200A0100200F
:101540000B0100200C0100200D0100206200002092
:1015500000B5024600200A490860032001F0C6F9E0
:10156000101201F0C3F9D0B201F0C0F9FF2001F070
:10157000BDF9034601200349C1F88002184600BDA9
:10158000800244420000444200B500200449086043
:10159000062001F0ABF901200249C1F8800200BD2C
:1015A000800244420000444200B50246FFF7ECFFCF
:1015B000002006490860012001F098F9104601F06A
:1015C00095F901200249C1F8800200BD8002444221
:1015D000000044420A48006830B900200949086008
:1015E0000949C1F8940207E000200649091D086076
:1015F00001200549C1F89002002004490880704785
:10160000180243429002454200004542B2000020C9
:101610000948006830B90020084908600849C1F845
:10162000B00207E000200549091F086001200449B5
:10163000C1F8B402704700003C824142B402434208
:10164000000043420B48006840B900200A49086086
:101650000A49C1F8B0020A4908600AE000200649B8
:10166000086001200549C1F8B0024FF4C870044970
:101670000860704720024042B402434200004342E7
:101680009C0000200948006838B9002007496C31E7
:1016900008600749C1F8880207E00020034970315B
:1016A000086001200249C1F8840270471882444250
:1016B000008044420B48006840B900200A49086095
:1016C0000A49C1F888020A4908600AE00020064970
:1016D000086001200549C1F888024FF4C870044928
:1016E0000860704730024042848244420080444295
:1016F0008C00002038B500240620284908702848AE
:101700000088C82190FBF1F1F82040FA01F406208E
:1017100000F0FAFF01210846FFF702FB04F0010088
:10172000C4F34003C4F38002C4F3C001009002205C
:10173000FFF7C8FB05460E2000F07CFF012803D10F
:1017400002F09CFB022038BD1648006858B11648CC
:10175000006816490968401A2D38002807DD13482B
:101760000068002803DD02F089FB0320EBE755B990
:1017700004F00F000F2802D002F080FB0CE00020E4
:1017800002F03AFB08E0022D02D102F077FB03E001
:10179000FFF786FD0120D6E70020D4E71D000020DA
:1017A0005C0000201C824442640000206C00002089
:1017B00010B50F2000F0A8FFFEF796FE10BD30B563
:1017C000CC1000F1200353F824304C07E50E0F2411
:1017D000AC40A343CD1000F1200444F82530CC10D8
:1017E00000F1200353F824304C07E40E02FA04F40D
:1017F0002343CD1000F1200444F8253030BD000013
:101800001CB58E48006840F001008C49086000203B
:1018100000900346012248F2F0010190884800F050
:1018200025F900200090034602464FF488510190AC
:10183000834800F01BF98148006840F002007F49AE
:101840000860002000900346012240F2F33101902D
:101850007C4800F00BF900200090034602464FF44C
:101860007C410190774800F001F97448006840F02D
:1018700004007249086000200090034601224FF2E4
:1018800031010190704800F0F1F80020009003460B
:1018900002464FF4007101906B4800F0E7F867488A
:1018A000006840F008006549086000200090034689
:1018B0000122FF210190654800F0D8F80020009037
:1018C000034602464FF47F410190604800F0CEF895
:1018D0005A48006840F01000584908600020009005
:1018E00003460122FF210190594800F0BFF8002073
:1018F0000090034602464FF47F410190544800F0A7
:10190000B5F84E48006840F020004C4908600020BF
:101910000090034601224FF6FF7101904D4800F000
:10192000A5F84648006840F040004449086000209F
:1019300000900346012247F603610190464800F0FB
:1019400095F83E48006840F080003C49086000205F
:1019500000900346012230210190404800F086F8B3
:1019600000200090034602464FF6C07101903B48AC
:1019700000F07CF801220F210720FFF7A7FC0023CD
:1019800028220221184600F03DFB2C48006840F454
:1019900080702A49086000200090034601224FF61B
:1019A000F17101902E4800F061F82448006840F47D
:1019B00000702249086000200090034601224FF683
:1019C0003F010190274800F051F8002000900346A5
:1019D00002464FF47E610190224800F047F803224E
:1019E0000B210920FFF772FC00232822032118464F
:1019F00000F008FB1148006840F480600F4908605F
:101A00000020009003460122F8210190164800F0C2
:101A10002DF800200090034602460721019012484D
:101A200000F024F8032200210A20FFF74FFC0123D5
:101A300006220021084600F0E5FA1CBD30380240BD
:101A4000000002400004024000080240000C024076
:101A5000001002400014024000180240001C024026
:101A60000020024000240240002802402DE9F047F7
:101A70000C46DDE90867002100258C4600BF60E0C8
:101A80004FF0010808FA01F504EA050CAC4557D1FE
:101A9000D0F800804FEA410A4FF0030909FA0AF929
:101AA00028EA0908C0F80080D0F800804FEA410910
:101AB00002FA09F948EA0908C0F80080012A01D0B1
:101AC000022A27D1D0F808804FEA410A4FF00309D3
:101AD00009FA0AF928EA0908C0F80880D0F808804D
:101AE0004FEA410906FA09F948EA0908C0F80880EE
:101AF000D0F804904FF0010808FA01F829EA080923
:101B0000C0F80490D0F8048003FA01F948EA090803
:101B1000C0F80480D0F80C804FEA410A4FF0030966
:101B200009FA0AF928EA0908C0F80C80D0F80C80F4
:101B30004FEA410907FA09F948EA0908C0F80C8098
:101B4000491C10299CD3BDE8F087000000201749EC
:101B50000870174908701749087017490870174925
:101B60000870174908701749087017490870174915
:101B70000870174908701749087017490870174905
:101B800008701749087017490870174908701749F5
:101B900008701749087017490870174908701749E5
:101BA000087017490870174908707047C80000206E
:101BB000C9000020CA000020CB000020CC0000207B
:101BC000CD000020CE000020CF000020D00000205B
:101BD000D1000020D2000020D3000020D40000203B
:101BE000D5000020D6000020D7000020D80000201B
:101BF000D9000020DA000020DB000020DC000020FB
:101C0000DD000020DE0000201CB50B48006840F01D
:101C10002000094908600120022100230246CDE985
:101C2000001003210548FFF721FF01200449086047
:101C30000449C1F880021CBD303802400014024043
:101C4000848242420080424210B500200F49086061
:101C50000F48006820F003000D490860084600683E
:101C600040F00100086000200A49C1F8800202200B
:101C700002F058F9012005490860022002F052F9EB
:101C800000200449C1F8840210BD00008482424251
:101C9000001402400080424210B500200F49086045
:101CA0000F48006820F003000D49086008460068EE
:101CB00040F00100086001200A49C1F880020220BA
:101CC00002F030F9012005490860022002F02AF9EB
:101CD00000200449C1F8840210BD00008482424201
:101CE000001402400080424270B5054600241648A8
:101CF000006820F003001449086008460068086086
:101D0000002616E0002011490860022002F00AF9BE
:101D100001200F49C1F884026006040E0B48843884
:101D2000006808B1601CC4B2012002F0FBF8701C0E
:101D3000C6B2082EE6DB15B9FFF7AEFF01E0FFF7EC
:101D400083FF204670BD000000140240848242429E
:101D50000080424270B504461748006820F0030036
:101D6000154908600846006840F00100086000203E
:101D700012490860002517E0E0091049091F0860B2
:101D80006006040E022002F0CDF801200C49C1F8D3
:101D90008402022002F0C6F80020084908600220F0
:101DA00002F0C0F8681CC5B2082DE5DB00F056F85B
:101DB0000546284670BD000000140240848242425D
:101DC0000080424210B50F48006820F003000D4922
:101DD00008600846006840F00100086001200A49D8
:101DE00008600A49C1F88402042002F09BF8002030
:101DF00005490860042002F095F800200349C1F865
:101E0000840210BD0014024080824242008042429F
:101E100010B50F48006820F003000D49086008461F
:101E2000006840F00100086000200A4908600A4983
:101E3000C1F88002042002F075F80120054908600D
:101E40000549C1F88002042002F06CF810BD0000C2
:101E500000140240848242420080424210B50024B5
:101E60001348006820F00300114908600846006824
:101E7000086001200F49086002F054F801200E4963
:101E8000C1F8840202F04EF807E0601CC4B2FA2CDC
:101E900003DDFFF7BDFF012010BD06488038006854
:101EA0000028F2D10349091D086000BFF4E70000D3
:101EB0000014024080824242008042422DE9F041FB
:101EC0000C461546069E444FB84209D93946434F41
:101ED0003F6847F48007DFF804C1CCF8007008E0E1
:101EE0003F493E4F3F6847F40017DFF8F0C0CCF899
:101EF000007000BF076807F00107002FFAD1471AEA
:101F0000103F4FF0180CB7FBFCF7FAB2062A10DBB3
:101F1000CF68A2F1060C0CEB4C0C4FEA4C0C0CF108
:101F2000100C4FF03D0808FA0CF847EA0807CF609C
:101F30002FE0042A0EDBCF68A2F1040C0CEB4C0C52
:101F40004FEA4C084FF03D0C0CFA08FC47EA0C072E
:101F5000CF601EE0022A10DB8F68A2F1020C0CEBAE
:101F60004C0C4FEA4C0C0CF1100C4FF03D0808FAE9
:101F70000CF847EA08078F600BE08F6802EB420C11
:101F80004FEA4C084FF03D0C0CFA08FC47EA0C07EE
:101F90008F608560C360466000270760076847F070
:101FA000400707600768076007680760076847F42D
:101FB000806707600768076007680760076847F47D
:101FC000803707600768076007680760076847EAA7
:101FD00044670760BDE8F081006402403038024089
:101FE00000600240026822F00102026000BF026845
:101FF00002F00102002AFAD14160026842F00102B7
:10200000026070472DE9F0410746884614461D4698
:10201000284600F033F8C5F1040007FA00F60F2057
:10202000284100EA0800064306F00F06E21704EB19
:10203000D2625211920002F1E022D2F80021214630
:10204000E31704EBD3635B11A4EB431C012303FAF6
:102050000CF31A432046E31704EBD3635B119B0098
:1020600003F1E023C3F800210348005D40EA0610B5
:1020700001490855BDE8F08100E400E0014607236E
:1020800023EA01021202054B18684FF6FF031840BD
:10209000034B18431043014B186070470CED00E0F0
:1020A0000000FA054A0A52020243014B1A607047C7
:1020B00008ED00E01CB5C4480078012804D10121D6
:1020C000FF20FEF72DFE03E00021FF20FEF728FE93
:1020D000BE480078012803D1FF21FEF721FE0CE065
:1020E000BB480078012804D1FF210220FEF718FE2A
:1020F00003E0FF210320FEF713FEB6480078012815
:102100000AD100200221FF230246CDE90010194622
:102110001846FEF7ADFC18E0AF48007801280AD158
:1021200000200121FF230246CDE900101946184680
:10213000FEF79EFC09E000200321FF230246CDE9C3
:10214000001019461846FEF793FCA44800780128B1
:102150000AD10020FF210B460246CDE900100221E2
:102160000846FEF785FC09E00020FF210B460246E9
:10217000CDE9001001210846FEF77AFC9848007866
:10218000012809D10020FF2101230246CDE90010DA
:102190000846FEF76DFC08E00020FF2103460246DA
:1021A000CDE900100846FEF763FC8E480078012850
:1021B00009D18D480078012802D1FEF79BFD02E08D
:1021C0000020FEF797FD87480078022821D1874834
:1021D0000078012803D1FF21FEF72AFE03E0FF214A
:1021E0000020FEF725FE82480078012804D1022154
:1021F000FF20FEF71DFE0CE07E480078012804D188
:102200000121FF20FEF714FE03E00321FF20FEF76B
:102210000FFE79480078012807D17849086078498D
:10222000C1F8B8027749086007E0002073490860E8
:102230007349C1F8B80273490860734800780128EF
:1022400006D16E49091D08606D49C1F8B00206E06B
:1022500000206A49091D08606949C1F8B0026B484D
:102260000078012808D1654908606549C1F8B802BD
:1022700064490839086008E0002060490860604946
:10228000C1F8B8025F490839086061480078012840
:1022900008D15A4908605A49C1F8B8025949091F7A
:1022A000086008E00020554908605549C1F8B802A7
:1022B0005449091F08604B480078022813D155483B
:1022C0000078012807D14D4908604D49C1F8B8028E
:1022D0005149086007E00020484908604849C1F8B2
:1022E000B8024D4908604D480078012808D1FF2008
:1022F00003460246014600900120FEF7E3FD14E08C
:1023000047480078012808D1FF20034602460146CD
:1023100000900220FEF7D6FD07E0FF2003460246AC
:10232000014600900320FEF7CDFD3E4800780128CD
:1023300007D1FF200346024601210090FEF7C2FDAF
:1023400006E0FF200346024600210090FEF7BAFD9A
:1023500035480078012807D1FF20034601220146B5
:102360000090FEF7AFFD06E0FF2003460022014685
:102370000090FEF7A7FD2D480078012807D1FF2027
:102380000123024601460090FEF79CFD06E0FF2077
:102390000023024601460090FEF794FD2448007891
:1023A000012807D1FF231A46194600901846FEF768
:1023B00089FD07E00020FF231A46194600901846C1
:1023C000FEF780FD1CBD0000C8000020C9000020F1
:1023D000CA000020CB000020CC000020CD0000204F
:1023E000CE00002062000020CF000020D00000209E
:1023F000D1000020D2000020D3000020B48244424B
:1024000000804442AC024342D4000020D5000020AA
:10241000D6000020D80000209C824142D900002034
:10242000DA000020DB000020DC000020DD000020BE
:10243000DE00002000B5FFF73DF9FFF703F9FEF7D6
:102440009FFFFFF7C7F800200149086000BD0000AA
:10245000BC82444200B501F011FD00200A49086029
:102460000A49C1F888020A490860091F086008493A
:10247000091D086007490860091D0860091D0860FA
:1024800001493831086000BD8482444200804442E2
:10249000B40243428C0245420020134908601349AC
:1024A000C1F8980212490860124908601249086090
:1024B0001049091F086011490860091D08600F498B
:1024C000103108600A49303108600D490860091D63
:1024D0000860091D08600B4908600549343108602F
:1024E0000949C1F8B80270479C02454200004542C4
:1024F0008082444284824042BC0244428C824142F7
:10250000A4024342940241420080444200B507487D
:102510000078012807D11F2000F08CF808B90120AD
:1025200000BD0220FCE7FF20FAE700006200002067
:1025300000200A4908700A4908700A4908700A49C7
:1025400008700A4908700A4908800A4908700A494F
:1025500008700A4908700A49088070471D00002069
:10256000EE000020630000200E0100200F0100207B
:10257000100100202201002023010020C4000020BF
:10258000C60000202DE9F04107460C461646FFF72D
:1025900019FC6420FFF7DEFB012803D1FFF738FCAC
:1025A000BDE8F0813846FFF7D5FB012802D1FFF7DF
:1025B0002FFCF5E7FFF706FC6520FFF7CBFB0128B2
:1025C00002D1FFF725FCEBE7002506E00120FFF72D
:1025D0008BFB2070641C681CC5B2701EA842F5DC21
:1025E0000020FFF781FB2070FFF712FC00BFD7E748
:1025F00010B501200E490860FFF79AFFFFF74CFF66
:10260000FFF784FF012805D1FFF724FF00F0B2F89F
:10261000032010BDFFF70EFF0F2000F00BF818B9D4
:10262000012001F0A7FB01E001F028FC0020F0E709
:1026300090024042014601F0010020B11D480068AF
:10264000012800D1704701F0020048B11A48006823
:10265000012803D019480068012801D10120F1E7C1
:1026600001F0040090B116480078012805D1134804
:10267000001F0068012800D1E4E711480078022813
:1026800004D110480068012800D1DBE701F0080000
:1026900028B1084810380068012800D1D2E701F0BD
:1026A000100020B108480068012800D1CAE70020C6
:1026B000C8E700003002404224024142180243426F
:1026C00062000020248244423482434200200749B1
:1026D00008600749088007490870074908800749CA
:1026E0000870074908800749088070476400002087
:1026F000560000205E0000205C0000201E0000202C
:1027000010000020120000201CB5044604F0010057
:1027100038B1002003460246014600900120FEF732
:10272000D1FB04F0020048B1002003210346024619
:10273000CDE9001001210846FEF79AF904F00400E3
:1027400070B10B480078012802D10020FEF7D2FAC0
:1027500007480078022803D103210020FEF768FB18
:1027600004F0080018B100210120FEF7D9FA1CBDC1
:102770006200002010B50020184908701849087040
:10278000184908801848194908600020184908604D
:102790001849086018490860184908601849087005
:1027A00018490870184908701849087018490870C5
:1027B00018490870184908701849087018490870B5
:1027C0001849086018490880184908701849088095
:1027D00018490880FFF7BAF910BD00001E0000205C
:1027E000600000205C00002019FCFFFF6800002052
:1027F0006C0000207C00002080000020840000206D
:1028000051000020EA000020EB000020EC00002036
:10281000ED000020E7000020E8000020E900002093
:10282000EF00002064000020560000205E00002021
:1028300010000020120000201CB500242848006869
:1028400040F480702649086025481030006840F444
:1028500080402349103108600120022100230A46EC
:10286000CDE900100E211F48FFF700F905220121D4
:102870001C48FEF7A4FF052202211A48FEF79FFF1D
:10288000052203211748FEF79AFF15481038006803
:1028900040F480401249103908600846006820F46E
:1028A000804008601048008820F400600E490880CD
:1028B00000BF44F4007444F4807444F0040400BF86
:1028C00044F0020444F0010444F0100400BF44F05A
:1028D000400405481C3804808020FEF765FE1CBDBE
:1028E00030380240002002401C380040014600BF42
:1028F0000A48008800F002000028F9D00748001DAF
:10290000018000BF0548008800F001000028F9D0D0
:102910000248001D0088C0B270470000083800401F
:1029200010B50E48006800F00060B0B10B480830E8
:10293000006840F0006009490831086080200849BB
:1029400088820848007808490870084800780870AC
:1029500002210248B430FFF745FB10BD0464024079
:10296000001001400F010020EC0100200E010020AA
:102970002DE9FC410646FE480078012870D1012E61
:102980006FD1FC48007808B9022500E00125FA481B
:10299000007818BB0020F94908700321034602465D
:1029A000CDE9001001210846FEF762F8F4480078EE
:1029B000012802D0F348006868B90120EE49087088
:1029C000F148F2490860F2490860F2490860F249AA
:1029D0000860F24908600220BDE8FC81E648007802
:1029E000012846D1EE48007848B90020022103466C
:1029F0000246CDE900100846FEF73AF809E000204B
:102A0000032103460246CDE9001001210846FEF7E6
:102A10002FF8E4480068142807DBDC480068002829
:102A200003DAE0480068D9490860DE480068D74901
:102A30000968401AA0F12A04002C18DDD348006868
:102A4000002814DBD1480068D74908600020C94934
:102A50000870D348007828B90220C749087004E0FC
:102A6000E7E36FE30520C44908700220B4E70020C3
:102A7000B2E7C1480078022818D10020022103469D
:102A80000246CDE900100846FDF7F2FFBD48001FE1
:102A9000006848B9BB480838006828B90320B6491F
:102AA00008700020C1490880022095E7B2480078EC
:102AB00003287CD1BD4800886E2809DC002003462D
:102AC00002460321CDE900500846FDF7D1FFC3E0DF
:102AD000B64800886E280CDDB4480088782808DCE9
:102AE000012000231A460321CDE90050FDF7C0FF65
:102AF000B2E0AE48008878280DDDAC480088B0F51B
:102B0000877F08DC012000231A460221CDE900500E
:102B1000FDF7AEFFA0E0A5480088B0F5877F0EDD89
:102B2000A2480088B0F5D27F09DC012000231A46B4
:102B30000321CDE900500846FDF79AFF8CE09B4841
:102B40000088B0F5D27F0EDD98480088B0F5347F5C
:102B500009DC012000231A460146CDE9005002207D
:102B6000FDF786FF78E091480088B0F5347F0EDDF0
:102B70008E480088B0F55C7F09DC012000231A46EE
:102B80000321CDE900500846FDF772FF64E0874855
:102B90000088B0F55C7F10DD8448008840F27A310F
:102BA00088420ADC012000231A46032100E055E098
:102BB000CDE90050FDF75CFF4EE07C48008840F214
:102BC0007A3188420DDD79480088B0F5826F08DCE3
:102BD000012000231A460221CDE90050FDF748FFED
:102BE0003AE072480088B0F5826F0FDD6F480088C8
:102BF00040F27441884209DC012000231A46032177
:102C0000CDE900500846FDF733FF25E0674800880E
:102C100040F2744188421FDD5648007818B90420FC
:102C20005549087018E053480078012814D15A48D3
:102C300000685A490968401A00F11307022F08DD9D
:102C40000F2F06DA08204C490870002057490880E9
:102C500002E00420484908700220BDE6464800789A
:102C600004281FD10020034602460121CDE900506F
:102C70000846FDF7FDFE4E48006888B94D480068DB
:102C800070B93C48007818B905203B49087005E048
:102C900038480078012801D103209DE600209BE6FA
:102CA000022099E634480078052819D1002003460F
:102CB00002460121CDE900500846FDF7D9FE39480A
:102CC000006839490968401AA0F12A04142C05DD6E
:102CD00006202949087000203749088000207BE63B
:102CE0002548007806286DD134480078012814D191
:102CF00029480068002810DD2A480068264909682C
:102D0000401A3838002808DD0B201B49087022487B
:102D100000682B49086002205EE622480068B4285B
:102D200001DA022500E0012519480068002807DDC6
:102D300018480068002803DA15480068154908603B
:102D40001848006813490968401AA0F1280414F1D2
:102D5000140F45DD142C43DA17480088642835DA4F
:102D60000020034601221146CDE9005010462AE01A
:102D700062000020520000201E00002054000020AD
:102D8000DF0000203C82414219FCFFFF6800002068
:102D90007C000020780000206C00002080000020D3
:102DA000E80000206400002070000020B600002031
:102DB0002402414218024342B8000020E9000020EA
:102DC000840000205EE0FDF753FE14E0002003467F
:102DD00001220321CDE900500846FDF749FE0AE033
:102DE0000020F7490880034601220221CDE9005066
:102DF0000846FDF73DFEF3480068F3490968401AAC
:102E00000446F2480078012803D0F04800780228F0
:102E10000DD1002C02DD0120ED490870EB4800784F
:102E2000012804D13C2C02DD0020E9490870E94862
:102E3000006828BBE748001F006808BBE648006838
:102E4000502804DADF4800684638E3490860E34860
:102E50000068502804DADB4800683638DF4908602B
:102E6000DD480068DE490860DB480068DD4908602D
:102E70000720DD4908700120DC4908700220ABE51D
:102E80000020A9E5D848007807282BD1002001218F
:102E900003460246CDE9001003210846FDF7E8FD90
:102EA0000120CB490870C7480068CD490968401A1D
:102EB000A0F14604002C01DC00208DE5002C0CDD87
:102EC000022C0ADC0320C84908700020C849088089
:102ED0000120C649087002207EE5012000F04AFF6B
:102EE000042079E5C0480078082832D1012000F09C
:102EF00041FF012000900346002203210190084673
:102F0000FDF7B6FDB748006800F10E04B34800684D
:102F1000A0F10B08444502DD4FF0080801E04FF036
:102F20000E08A8480068AE490968401AA0F1460496
:102F3000C8F1000084420ADA0920AB490870002079
:102F4000AB4908800120A9490870022044E504200B
:102F500042E5A548007809287ED1A5480088642864
:102F60000ADC002001210B460246CDE900100321B6
:102F70000846FDF77DFDA8E09D48008864280CDD2B
:102F80009B480088782808DC012000900346002236
:102F900003210190FDF76CFD97E0954800887828A3
:102FA0000DDD93480088B0F5877F08DC0120009094
:102FB0000346002202210190FDF75AFD85E08C486E
:102FC0000088B0F5877F0EDD89480088B0F5D27F94
:102FD00009DC0120009003460022032101900846ED
:102FE000FDF746FD71E082480088B0F5D27F0EDD26
:102FF0007F480088B0F5347F09DC0120009003464B
:103000000022014601900220FDF732FD5DE0784884
:103010000088B0F5347F0FDD7548008840F26631D6
:10302000884209DC01200090034600220321019020
:103030000846FDF71DFD48E06D48008840F2663106
:10304000884210DD6A48008840F27A3188420ADC02
:1030500001200090034600E039E0002203210190A6
:10306000FDF706FD31E06248008840F27A3188427F
:103070000DDD5F480088B0F5826F08DC012000900C
:103080000346002202210190FDF7F2FC1DE05848A2
:103090000088B0F5826F0FDD5548008840F274411A
:1030A000884209DC012000900346002203210190A0
:1030B0000846FDF7DDFC08E04D48008840F2744109
:1030C000884202DD0A2048490870022084E446480C
:1030D00000780A281ED10120009003460022032117
:1030E00001900846FDF7C4FC364800683C49096871
:1030F000401AA0F14604002C0ADD04203A49087069
:1031000000203B490880012038490870022063E410
:10311000002061E4344800780B2828D101202C4994
:1031200008700020012103460246CDE90010084640
:10313000FDF79EFC0E20FFF77DFA08B903204BE453
:10314000022049E4022E73D11E4800682449096810
:10315000401AA0F1460414F1140F09DD00200121EA
:1031600003460A46CDE900100846FDF781FC7BE0E6
:1031700014F1230F0DDD14F1140F0ADC00200121DE
:1031800003460A46CDE9001002210846FDF770FC0F
:103190006AE00C48006817490968401A2A38142860
:1031A0002CDA15480078012828D100200221034696
:1031B0000246CDE9001001210846FDF759FC53E015
:1031C000B80000206400002078000020E700002004
:1031D00054000020388241426C0000208000002012
:1031E00084000020740000201E00002052000020F7
:1031F000B600002070000020E80000201B48006896
:103200001B490968401AA0F1280414F1140F1BDDB2
:10321000142C19DA1748008882280BDA002003469C
:1032200001221146CDE900501046FDF721FC1BE0BC
:1032300016E017E00020034601220321CDE90050EB
:103240000846FDF715FC0FE000200A49088002211E
:1032500003460122CDE900100846FDF709FC03E012
:10326000FF2005E4FF2020E400201EE4640000208D
:1032700078000020B8000020F0B504460D46164640
:103280001F461448006840F0010012490860002001
:103290001049083108600F4800680F4908400D497F
:1032A00008600E48091D0860081F006820F480208F
:1032B000091F0860002007490C3108603B46324670
:1032C0002946204600F00CF800210846FEF7EAFEE9
:1032D000F0BD000000380240FFFFF6FE1030002471
:1032E000F0B504460D46002100203D4E366846F4F8
:1032F00080363B4F3E6001E04E1CB1B2384E36681E
:1033000006F400361EB941F6FF76B142F4DB41F611
:10331000FF76B14201D1012060E0314E403636687F
:1033200046F080562E4F40373E602E4E366846F4AB
:1033300040462C4F3E602A4E0836366846F4144606
:10334000274F08373E60264E366826F08076244F99
:103350003E6045EA84160127C7EB520746EA074656
:1033600046EA036646F480061D4F3F1D3E603E1F41
:10337000366846F080763F1F3E6000BF184E3668C4
:1033800006F00076002EF9D0174E366846F48076A7
:10339000154F3E603E46366846F400763E603E4637
:1033A000366846F480663E603E46366846F005065E
:1033B0003E600B4E0836366826F00306084F083785
:1033C0003E603E46366846F002063E6000BF044E50
:1033D0000836366806F00C06082EF8D1F0BD00005D
:1033E0000038024000700040003C024070B5F948CF
:1033F000008800F0010000287ED0F748006801280E
:103400007BD1F64800780028FAD1F54800880128D9
:1034100004DDF3480088401EF1490880F148008827
:10342000B0F57A7F04DAEF480088401CED49088047
:10343000ED48006870B9ED48007801280AD1EC48E1
:103440000088B0F5FA6F13DAE9480088401CE849B3
:1034500008800DE0E4480068012809D1E5480088AB
:10346000B0F5FA6F04DAE3480088401CE1490880AF
:10347000E1480068012816D1E0480088B0F57A7F5D
:1034800004DADE480088401CDC490880DB480088FC
:1034900004280BDDDA480068002807DAD9480068FC
:1034A000D749086002E00020D4490880D2480C388F
:1034B000006850B9D4480088B0F57A7F08DAD2485D
:1034C0000088401CD049088002E00020CE490880D6
:1034D000CE48008842F21071884204DACB48008856
:1034E000401CCA490880CA480088B0F57A7F07DACC
:1034F000C7480088401C01E012E18DE0C449088003
:10350000C4480088B0F57A7F04DAC2480088401CBD
:10351000C0490880C0480088B0F57A7F04DABE4808
:103520000088401CBC490880BC480068002804DDB5
:10353000BA480068401EB9490860B94800680028C8
:1035400004DDB7480068401EB5490860B54800680A
:10355000002804DDB3480068401EB2490860B24844
:103560000068002804DDB0480068401EAE490860CD
:10357000AE480068002804DDAC480068401EAB4936
:103580000860AB480068002804DDA9480068401EB8
:10359000A7490860A7480068002804DDA54800681E
:1035A000401EA4490860A4480068002804DDA24821
:1035B0000068401EA0490860A0480068002804DD9B
:1035C0009E480068401E9D4908609D48006800288C
:1035D00004DD9B480068401E9949086099480078BE
:1035E000642804DA97480078401C96490870964889
:1035F0000068B0F57A7F04DA93480068401C92496D
:10360000086092480088B0F5167F08DA8F48008875
:10361000401C8E49088002E000208C4908808C48BC
:103620000078401CC0B28A490870012878DD00206B
:1036300008708849088800EBD071C1F34705002D58
:103640006FDD0024E2E1844810F8140041280FD116
:10365000012000EB44008049085C30387F49087045
:103660000846007820B9FEF771FA01207C490870FD
:103670007A48007801280CD1774810F814004228C5
:1036800008D1012000EB44007349085C30387549CB
:10369000087049E1704810F81400432808D101204F
:1036A00000EB44006C49085C30386F4908703BE11E
:1036B000694810F81400442808D1012000EB4400A8
:1036C0006549085C3038694908702DE1624810F896
:1036D0001400452808D1012000EB44005E49085C35
:1036E0003038634908701FE15B4810F81400462821
:1036F00008D1012000EB44005749085C30385D498F
:10370000087011E1544810F8140047280AD101202C
:1037100000EB44005049085C30385749087003E119
:103720007AE176E14C4810F81400482808D10120CD
:1037300000EB44004849085C303850490870F3E019
:10374000454810F81400492808D1012000EB440036
:103750004149085C30384A490870E5E03E4810F8B5
:1037600014004A2808D1012000EB44003A49085CC3
:10377000303844490870D7E0374810F814004B2817
:1037800008D1012000EB44003349085C30383E4941
:103790000870C9E0304810F814004C2808D1012006
:1037A00000EB44002C49085C303838490870BBE015
:1037B000294810F814004D286ED1012000EB440078
:1037C0002549085C303832490870002031490870BA
:1037D000AAE061E01004004030824042EC0000208A
:1037E0001001002012010020000245425E0000206E
:1037F00056000020100000202C82444212000020BD
:103800007C00002014000020B4000020B60000203E
:10381000B0000020B2000020B80000208C00002082
:1038200088000020BC000020C00000209000002084
:1038300098000020A8000020AC000020A400002078
:103840009C00002061000020940000205C0000200B
:10385000180000200C00002024010020EA000020B5
:10386000ED000020C8000020C9000020CA00002090
:10387000CB000020CC000020CD000020CE00002096
:10388000D3000020D4000020D5000020D600002066
:10389000D9000020DA000020634810F814004E28F8
:1038A0000BD1012000EB44005F49085C30385F49D0
:1038B000087000205E49087036E05B4810F814007C
:1038C0004F2808D1012000EB44005749085C3038EC
:1038D0005849087028E0544810F81400502808D1BE
:1038E000012000EB44005049085C30385249087010
:1038F0001AE04D4810F81400512808D1012000EBBF
:1039000044004949085C30384C4908700CE046488E
:1039100010F81400522807D1012000EB440042495E
:10392000085C3038464908703F4810F814005328A6
:1039300006D14448007830BB0120434908705AE062
:10394000394810F81400542806D13E480078D0B900
:1039500002203D4908704EE0334810F81400552805
:1039600006D13848007870B903203749087042E022
:103970002D4810F81400562806D13248007810B9A6
:1039800004203149087036E0274810F81400572801
:103990000DD1012000EB44002349085C312803D1FC
:1039A000012000F029FA26E000F068FA23E01E4822
:1039B00010F81400582803D10120244908701AE097
:1039C000194810F81400592808D1012000EB4400D0
:1039D0001549085C30381E4908700CE0124810F890
:1039E00014005A2807D1012000EB44000E49085C5E
:1039F00030381849087000200B4901F814000121E3
:103A000001EB4401084A5054601CC4B2AC42FFF6BA
:103A10001AAE0020104908801048008820F00100EC
:103A20000E49088070BD000024010020DA0000204B
:103A3000D9000020DB000020DC000020DD00002099
:103A4000DE00002063000020EE000020EB000020DC
:103A5000EC000020ED0000200C00002010040040CD
:103A600070B505460C461048006840F002000E494B
:103A700008600E480560001F04800C48203800884C
:103A800040F0010009492039088008482C38008896
:103A900040F0010005492C39088002231D22032132
:103AA0000120FEF7AFFA70BD403802402C04004000
:103AB000F0B52DED028B83B005460E46384905FB67
:103AC00001F000EE100AF8EE400A300100EE100A94
:103AD000B8EE400A80EE801AB0EE418ABCEEC80A09
:103AE00010EE100A84B200EE104AB8EE400A38EE2A
:103AF000400AF3EE000A20EE200ABCEEC00A10EEE7
:103B0000107A4FF6FF7000EA0414E01984B22548D9
:103B1000006840F001002349086022481430006822
:103B200040F010001F4914310860012002210023D9
:103B30000A46CDE900104FF4C0611B48FDF796FF1F
:103B4000072209211848FDF73AFE07220A211648E4
:103B5000FDF735FE15480481808920F400401349A3
:103B600088810846808940F008008881084680895D
:103B700040F0040088810846808940F02000888158
:103B80000023252219461846FEF73CFA074880898B
:103B900040F400500549888103B0BDEC028BF0BDB4
:103BA00040420F0030380240000002400010014047
:103BB0000949098801F0200169B107498988C8B21B
:103BC00006490A880988491C044B1980044988540D
:103BD0000021044A11707047001001400C000020C1
:103BE000240100201800002010B55B48007890B92F
:103BF0005A48007800280ADDFEF788FC012806D123
:103C0000FCF72EFE18B9012053490870A3E00020EC
:103C1000534908709FE05148007800EB80005149FB
:103C200001EB400050490978405C012803D1FCF7C2
:103C300055FB04466EE04948007800EB8000494996
:103C400001EB400048490978405C022803D1FCF7A9
:103C500067FD04465EE04148007800EB8000414982
:103C600001EB400040490978405C032803D1FCF790
:103C700075FB04464EE03948007800EB8000394976
:103C800001EB400038490978405C042803D1FCF777
:103C900079FD04463EE03148007800EB8000314970
:103CA00001EB400030490978405C052803D1FDF75D
:103CB000FFF904462EE02948007800EB80002949EE
:103CC00001EB400028490978405C062803D1FDF744
:103CD00011FD04461EE02148007800EB80002149D8
:103CE00001EB400020490978405C072803D1FCF72C
:103CF000ADFC04460EE01948007800EB800019493D
:103D000001EB400018490978405C082802D1FCF713
:103D100025FB0446032C18D113480078401C124997
:103D200008700E48007800EB80000E4901EB40005F
:103D30000D490978405C40B901200C49087044F2F3
:103D400050600B490880FEF715FDFF2C01D0012CB7
:103D500001D1FDF7A5FA10BD63000020EE000020A0
:103D6000EB0000201F00002051000020C4000020B4
:103D7000C600002000B502461948006810B900F0DE
:103D80007DF82BE0022017490870012016490860D1
:103D900000201649C1F8B00215480068142800DB5D
:103DA00042B901201049091D086000201149C1F8DD
:103DB000880213E0012A07D100200B49091D086081
:103DC0000C49C1F8880209E0022A07D100200649FF
:103DD000091D086001200749C1F8880200BD0000E4
:103DE000348243425300002080824142000041421D
:103DF000640000200080414200B502461948006876
:103E000010B900F03BF82BE00120174908700020A2
:103E10001649086001201649C1F8B002154800682B
:103E2000FA2800DC42B901201049091D0860002071
:103E30001149C1F8880213E0012A07D100200B497B
:103E4000091D08600C49C1F8880209E0022A07D15F
:103E500000200649091D086001200749C1F88802B1
:103E600000BD00001C824442530000208082414279
:103E700000004142640000200080414200200649C9
:103E800008600649C1F8B0020349091D08600449E9
:103E9000C1F8880270470000808241420000414220
:103EA00000804142014600BF704700004FF0E02112
:103EB000096921F004014FF0E0221161C21700EB03
:103EC0005272C2F3C702074B1A701946097801EB08
:103ED0004102C2EBC1114FF6FF7202EAC101024A70
:103EE00011807047040000200600002070B50446D1
:103EF0004FF4077094FBF0F0C6B24FF4077094FBD8
:103F0000F0F100FB114085B205E04FF4077000F0BE
:103F100027F8701EC6B2002EF7D115B1284600F062
:103F20001FF870BD01460D4A12784A434FF0E02356
:103F30005A6100229A6101221A6100BF4FF0E0220B
:103F4000106900F001021AB100F48032002AF5D0A5
:103F500000224FF0E0231A619A61704704000020AC
:103F600001460D4A12884A434FF0E0235A6100226D
:103F70009A6101221A6100BF4FF0E022106900F03F
:103F800001021AB100F48032002AF5D000224FF06D
:103F9000E0231A619A6170470600002008B50723E4
:103FA000022208214FF4A870FFF766F9FDF728FCFC
:103FB000FEF742FCA820FFF779FFFDF725FEFCF78E
:103FC0003BFB4FF416515420FFF772FD4FF47A700B
:103FD000214B224A042100902148FDF76FFF40F257
:103FE000473140F2E730FFF73BFD00201D490870E4
:103FF00080201A49091F888201211948FDF7F2FF24
:104000004FF47A70FFF772FF022017490870FDF72E
:10401000D9F920E0FDF74AF91449087008460078FC
:10402000B8B913480078012802D1FEF7E1FA12E08E
:1040300010480078012802D1FEF73CF80BE00E484A
:104040000078012802D1FFF7CFFD04E0FDF7B0FBB7
:1040500001E0FDF725F9DDE7EC0100200410014047
:10406000B86402401D000020620000200200002011
:10407000ED000020EA000020EB0000204FF040702F
:10408000E1EE100A70470000A84000080000002080
:1040900024010000C4010008CC41000824010020D4
:1040A00024090000E00100080000000000000000FA
:1040B0000000000000000000000000000000000000
:1040C00000000000010000000000000000000000EF
:1040D00000080700000000000000000804050607B3
:1040E00000000000000102030405060700000005AF
:1040F00006070000000000000000000000000000B3
:1041000000000000000000000000000000000000AF
:10411000000000000000000000000000000000009F
:10412000000000000000000000000000000000008F
:10413000000000000000000000000000000000007F
:10414000000000000000000000000000000000006F
:10415000000000000000000000000000000000005F
:10416000000000000000000000000000000000004F
:10417000000000000000000000000000000000003F
:10418000000000000000000000000000000000002F
:10419000000000000000000000000000000000001F
:1041A000F92A0000000000000000000000000000EC
:1041B000000000000000000000000000BC02BC0283
:0C41C00064006400A40658022003000004
:040000050800018965
:00000001FF
